:100000000C942A000C94E1060C9414070C944707F6
:100010000C9447000C9447000C9447000C94870301
:100020000C94E2030C9447000C9447000C94470096
:100030000C9447000C9447000C9447000C94470024
:100040000C9447000C9447000C9447000C94470014
:100050000C94470011241FBECFE5D8E0DEBFCDBF12
:1000600010E0A0E6B0E0E4EBF0E102C005900D92F4
:10007000A837B107D9F710E0A8E7B0E001C01D929A
:10008000A738B107E1F70E94DA060C9458080C94DF
:100090000000DF93CF9300D000D00F92CDB7DEB732
:1000A00089836A834B838981843008F0D5C08A8133
:1000B000883008F0D1C08981282F30E03D832C831F
:1000C0008C819D818130910509F443C02C813D8153
:1000D000223031052CF48C819D81009771F0BCC0D9
:1000E0002C813D812230310509F45FC08C819D81D6
:1000F0008330910509F485C0AFC08B818823A9F4B2
:10010000AAE3B0E0EAE3F0E08081482F8A81282F5B
:1001100030E081E090E0022E02C0880F991F0A941F
:10012000E2F7809584238C9397C0AAE3B0E0EAE3DA
:10013000F0E08081482F8A81282F30E081E090E034
:10014000022E02C0880F991F0A94E2F7842B8C9329
:1001500083C08B818823A9F4A7E3B0E0E7E3F0E054
:100160008081482F8A81282F30E081E090E0022EA4
:1001700002C0880F991F0A94E2F7809584238C931C
:100180006BC0A7E3B0E0E7E3F0E08081482F8A810D
:10019000282F30E081E090E0022E02C0880F991FE6
:1001A0000A94E2F7842B8C9357C08B818823A9F49F
:1001B000A4E3B0E0E4E3F0E08081482F8A81282FB7
:1001C00030E081E090E0022E02C0880F991F0A946F
:1001D000E2F7809584238C933FC0A4E3B0E0E4E38E
:1001E000F0E08081482F8A81282F30E081E090E084
:1001F000022E02C0880F991F0A94E2F7842B8C9379
:100200002BC08B818823A9F4A1E3B0E0E1E3F0E007
:100210008081482F8A81282F30E081E090E0022EF3
:1002200002C0880F991F0A94E2F7809584238C936B
:1002300013C0A1E3B0E0E1E3F0E08081482F8A81C0
:10024000282F30E081E090E0022E02C0880F991F35
:100250000A94E2F7842B8C930F900F900F900F90DD
:100260000F90CF91DF910895DF93CF9300D000D00E
:100270000F92CDB7DEB789836A834B83898184303F
:1002800008F0D5C08A81883008F0D1C08981282F34
:1002900030E03D832C838C819D818130910509F470
:1002A00043C02C813D81223031052CF48C819D810D
:1002B000009771F0BCC02C813D812230310509F4DA
:1002C0005FC08C819D818330910509F485C0AFC0EA
:1002D0008B818823A9F4ABE3B0E0EBE3F0E080810D
:1002E000482F8A81282F30E081E090E0022E02C062
:1002F000880F991F0A94E2F7809584238C9397C006
:10030000ABE3B0E0EBE3F0E08081482F8A81282F57
:1003100030E081E090E0022E02C0880F991F0A941D
:10032000E2F7842B8C9383C08B818823A9F4A8E304
:10033000B0E0E8E3F0E08081482F8A81282F30E0A8
:1003400081E090E0022E02C0880F991F0A94E2F724
:10035000809584238C936BC0A8E3B0E0E8E3F0E0E1
:100360008081482F8A81282F30E081E090E0022EA2
:1003700002C0880F991F0A94E2F7842B8C9357C010
:100380008B818823A9F4A5E3B0E0E5E3F0E0808168
:10039000482F8A81282F30E081E090E0022E02C0B1
:1003A000880F991F0A94E2F7809584238C933FC0AD
:1003B000A5E3B0E0E5E3F0E08081482F8A81282FB3
:1003C00030E081E090E0022E02C0880F991F0A946D
:1003D000E2F7842B8C932BC08B818823A9F4A2E3B2
:1003E000B0E0E2E3F0E08081482F8A81282F30E0FE
:1003F00081E090E0022E02C0880F991F0A94E2F774
:10040000809584238C9313C0A2E3B0E0E2E3F0E094
:100410008081482F8A81282F30E081E090E0022EF1
:1004200002C0880F991F0A94E2F7842B8C930F90D7
:100430000F900F900F900F90CF91DF910895DF9361
:10044000CF9300D000D00F92CDB7DEB78A836B83F5
:1004500019828A81843008F084C08B81883008F04A
:1004600080C08A81282F30E03D832C834C815D81C0
:100470004130510579F18C819D818230910534F4B0
:100480002C813D812115310569F06BC04C815D8166
:1004900042305105B9F18C819D818330910509F479
:1004A00049C05FC0E9E3F0E08081282F30E08B8114
:1004B000882F90E0A90102C0559547958A95E2F7EB
:1004C000CA0181709070882319F081E0898349C046
:1004D000198247C0E6E3F0E08081282F30E08B816D
:1004E000882F90E0A90102C0559547958A95E2F7BB
:1004F000CA0181709070882319F081E0898331C02E
:1005000019822FC0E3E3F0E08081282F30E08B8157
:10051000882F90E0A90102C0559547958A95E2F78A
:10052000CA0181709070882319F081E0898319C015
:10053000198217C0E0E3F0E08081282F30E08B8142
:10054000882F90E0A90102C0559547958A95E2F75A
:10055000CA0181709070882319F081E0898301C0FD
:10056000198289810F900F900F900F900F90CF916B
:10057000DF910895DF93CF9300D000D0CDB7DEB7E1
:1005800089836A838981843090F58981282F30E0BE
:100590003C832B838B819C8181309105D1F02B8111
:1005A0003C81223031052CF48B819C81009761F0D5
:1005B0001EC02B813C812230310581F08B819C81D2
:1005C0008330910581F013C0EAE3F0E08A818083F3
:1005D0000EC0E7E3F0E08A81808309C0E4E3F0E045
:1005E0008A81808304C0E1E3F0E08A8180830F90F8
:1005F0000F900F900F90CF91DF910895DF93CF93DD
:1006000000D000D0CDB7DEB789836A838981853079
:1006100090F58981282F30E03C832B838B819C814E
:1006200081309105D1F02B813C81223031052CF4B1
:100630008B819C81009761F01EC02B813C81223010
:10064000310581F08B819C818330910581F013C04D
:10065000EBE3F0E08A8180830EC0E8E3F0E08A817A
:10066000808309C0E5E3F0E08A81808304C0E2E38F
:10067000F0E08A8180830F900F900F900F90CF91C0
:10068000DF910895DF93CF9300D000D0CDB7DEB7D0
:100690008A8319828A81843090F58A81282F30E0FC
:1006A0003C832B838B819C8181309105D1F02B8100
:1006B0003C81223031052CF48B819C81009761F0C4
:1006C0001EC02B813C812230310581F08B819C81C1
:1006D0008330910581F013C0E9E3F0E080818983E4
:1006E0000EC0E6E3F0E08081898309C0E3E3F0E037
:1006F0008081898304C0E0E3F0E08081898389817F
:100700000F900F900F900F90CF91DF9108951F924F
:100710000F920FB60F9211242F933F934F935F9335
:100720006F937F938F939F93AF93BF93EF93FF93B9
:10073000DF93CF93CDB7DEB78091780090917900A9
:10074000009741F180917A0090917B00009711F120
:1007500080918000813029F486E080937C001092A3
:10076000800080917F00813029F4E0917A00F0913F
:100770007B00099580917C00882321F080917C008A
:10078000863041F4E0917800F0917900099581E09C
:1007900080937C0080917C008F5F80937C00CF9160
:1007A000DF91FF91EF91BF91AF919F918F917F91D9
:1007B0006F915F914F913F912F910F900FBE0F90CE
:1007C0001F9018951F920F920FB60F921124DF936E
:1007D000CF93CDB7DEB7CF91DF910F900FBE0F90C3
:1007E0001F901895DF93CF9300D0CDB7DEB79A83D3
:1007F0008983AFE4B0E0EFE4F0E08081282F2F732D
:10080000E981FA818081882F90E000249695879570
:100810000794969587950794982F802D822B8C931B
:10082000AFE4B0E0EFE4F0E08081282F2F7CE98195
:10083000FA818181882F90E082959295907F982708
:10084000807F9827822B8C93AFE4B0E0EFE4F0E058
:100850008081282F277FE981FA818281882F90E08B
:10086000880F991F880F991F880F991F822B8C93CF
:10087000AFE4B0E0EFE4F0E08081282F2B7FE98146
:10088000FA818381882F90E0880F991F880F991F24
:10089000822B8C93AFE4B0E0EFE4F0E08081282F6E
:1008A0002C7FE981FA818781882F90E0002496953A
:1008B00087950794969587950794982F802D082EF5
:1008C000892F000C881F990B000C881F991F822B01
:1008D0008C93AEE4B0E0EEE4F0E08081282F277E38
:1008E000E981FA81878186958695882F90E0880F27
:1008F000991F880F991F880F991F822B8C93AEE444
:10090000B0E0EEE4F0E08081282F2F77E981FA81D2
:100910008581882F90E09695982F882797958795C1
:10092000822B8C93AEE4B0E0EEE4F0E08081282FDF
:100930002F7BE981FA818481882F90E000249695AD
:1009400087950794969587950794982F802D822BED
:100950008C93AEE4B0E0EEE4F0E08081982F987FD5
:10096000E981FA818681892B8C93A9E5B0E0E9E5DC
:10097000F0E08081282F2F7EE981FA818085882F01
:1009800090E082959295907F9827807F9827822B80
:100990008C93A9E5B0E0E9E5F0E08081282F277F7E
:1009A000E981FA818185882F90E0880F991F880F4F
:1009B000991F880F991F822B8C93A9E5B0E0E9E578
:1009C000F0E08081282F2B7FE981FA818285882FB2
:1009D00090E0880F991F880F991F822B8C93ACE4AD
:1009E000B0E0E981FA818385948511969C938E937A
:1009F000AAE4B0E0E981FA818585968511969C93F9
:100A00008E93A8E4B0E0E981FA81878590891196F8
:100A10009C938E930F900F90CF91DF910895DF9369
:100A2000CF9300D0CDB7DEB79A838983E2E5F0E0BB
:100A3000108281E063E041E00E944900E3E5F0E0DC
:100A400088E68083A3E5B0E0E3E5F0E09081E9810A
:100A5000FA818081892B8C930F900F90CF91DF9139
:100A60000895DF93CF9300D0CDB7DEB79A83898303
:100A7000E2E5F0E01082ACE5B0E0E981FA81808146
:100A80008C930F900F90CF91DF910895DF93CF93C8
:100A900000D0CDB7DEB79A83898389819A819093FC
:100AA0007900809378000F900F90CF91DF91089597
:100AB000DF93CF9300D0CDB7DEB79A838983898146
:100AC0009A8190937B0080937A000F900F90CF9142
:100AD000DF910895DF93CF93CDB7DEB7A1970FB61F
:100AE000F894DEBF0FBECDBF80E060E041E00E9421
:100AF000490080E061E041E00E94490080E062E05E
:100B000041E00E94490081E060E041E00E9449002C
:100B100081E061E041E00E94490081E062E041E063
:100B20000E944900CE010196998F888FE6E6F0E099
:100B3000FB8FEA8FF1E1FC8FEA8DFB8D00808A8DBF
:100B40009B8D01969B8F8A8FE88DF98D0082888D11
:100B5000998D0196998F888F9C8D91509C8FEC8DEB
:100B6000EE2351F7CE0101960E94F20387E396E04F
:100B70000E94460582E196E00E945805CE01429609
:100B80009E8F8D8FE0E6F0E0F8A3EF8FF6E0F9A3FB
:100B9000EF8DF8A100808F8D98A1019698A38F8F7B
:100BA000ED8DFE8D00828D8D9E8D01969E8F8D8F99
:100BB00099A1915099A3E9A1EE2351F7CE01429654
:100BC0000E947A078FEE95E00E942208A1960FB648
:100BD000F894DEBF0FBECDBFCF91DF910895DF93B4
:100BE000CF93CDB7DEB780917D008330C1F0809187
:100BF0007D00813041F080917D00882321F080913B
:100C00007D00823061F481E080937D0081E08093FB
:100C10008000ECE4F0E08AEC93E091838083CF9154
:100C2000DF910895DF93CF93CDB7DEB780917E003B
:100C3000882371F480E061E040E00E94340181E0AB
:100C400061E040E00E94340181E080937E000CC0AE
:100C500080E061E041E00E94340181E061E041E038
:100C60000E94340110927E00CF91DF910895DF93AE
:100C7000CF93CDB7DEB780917D00882321F580E04A
:100C800060E041E00E94340180E061E040E00E94C9
:100C9000340180E062E040E00E94340181E060E0E5
:100CA00040E00E94340181E061E040E00E943401B4
:100CB00081E062E041E00E94340110927F0081E017
:100CC00080937D0057C080917D00813021F080911C
:100CD0007D00833061F580E060E040E00E943401F7
:100CE00080E061E041E00E94340180E062E040E0A9
:100CF0000E94340181E060E040E00E94340181E024
:100D000061E041E00E94340181E062E040E00E9445
:100D1000340181E080937F0080917D00813021F457
:100D200082E080937D0026C010927D0023C080E089
:100D300060E040E00E94340180E061E040E00E9419
:100D4000340180E062E041E00E94340181E060E033
:100D500041E00E94340181E061E040E00E94340102
:100D600081E062E040E00E94340110927F0083E065
:100D700080937D00ECE4F0E011821082CF91DF914E
:100D80000895DF93CF93CDB7DEB70E946A05AFE534
:100D9000B0E0EFE5F0E0808180688C93CF91DF9147
:100DA0000895DF93CF93CDB7DEB70E94C106CF91F0
:100DB000DF910895DF93CF93CDB7DEB70E94D106C0
:100DC000FFCF1F920F920FB60F9211242F933F93D4
:100DD0004F935F936F937F938F939F93AF93BF9343
:100DE000EF93FF93DF93CF93CDB7DEB78091810070
:100DF00090918200009729F0E0918100F0918200AB
:100E00000995CF91DF91FF91EF91BF91AF919F91A4
:100E10008F917F916F915F914F913F912F910F90A3
:100E20000FBE0F901F9018951F920F920FB60F9242
:100E300011242F933F934F935F936F937F938F93DF
:100E40009F93AF93BF93EF93FF93DF93CF93CDB770
:100E5000DEB78091830090918400009729F0E091A3
:100E60008300F09184000995CF91DF91FF91EF917C
:100E7000BF91AF919F918F917F916F915F914F91B2
:100E80003F912F910F900FBE0F901F9018951F92BA
:100E90000F920FB60F9211242F933F934F935F93AE
:100EA0006F937F938F939F93AF93BF93EF93FF9332
:100EB000DF93CF93CDB7DEB7809185009091860008
:100EC000009729F0E0918500F09186000995CF9177
:100ED000DF91FF91EF91BF91AF919F918F917F91A2
:100EE0006F915F914F913F912F910F900FBE0F9097
:100EF0001F901895DF93CF9300D0CDB7DEB79A83BC
:100F0000898383E062E040E00E944900A5E5B0E00B
:100F1000E5E5F0E08081982F9C7FE981FA8183816B
:100F2000892B8C93ABE5B0E0EBE5F0E08081282FD6
:100F30002F7BE981FA818081882F90E000249695AB
:100F400087950794969587950794982F802D822BE7
:100F50008C930F900F90CF91DF910895DF93CF93F3
:100F600000D0CDB7DEB79A83898383E063E040E0A9
:100F70000E944900A5E5B0E0E5E5F0E08081282F7A
:100F8000237FE981FA818481882F90E0880F991F5F
:100F9000880F991F822B8C93ABE5B0E0EBE5F0E076
:100FA0008081282F2F77E981FA818181882F90E035
:100FB0009695982F882797958795822B8C930F90DD
:100FC0000F90CF91DF910895DF93CF9300D0CDB7ED
:100FD000DEB79A83898381E062E040E00E944900A5
:100FE000A4E5B0E0E4E5F0E08081282F2F7BE981E3
:100FF000FA818581882F90E0002496958795079443
:10100000969587950794982F802D822B8C93ABE52E
:10101000B0E0EBE5F0E08081282F2F7DE981FA81B7
:101020008281882F90E0880F991F82959295907FFA
:101030009827807F9827822B8C930F900F90CF91C9
:10104000DF910895DF93CF9300D0CDB7DEB79A83B9
:10105000898389819A8190938200809381000F9087
:101060000F90CF91DF910895DF93CF9300D0CDB74C
:10107000DEB79A83898389819A81909384008093D3
:1010800083000F900F90CF91DF910895DF93CF935E
:1010900000D0CDB7DEB79A83898389819A819093F6
:1010A0008600809385000F900F90CF91DF91089577
:0410B000F894FFCFE2
:1010B400010000030000000001000000050401001D
:0810C40000CA03D00300000084
:00000001FF
